{
  "contractName": "RentalBook",
  "abi": [
    {
      "anonymous": false,
      "inputs": [
        {
          "indexed": false,
          "name": "id",
          "type": "uint256"
        }
      ],
      "name": "BorrowEvent",
      "type": "event"
    },
    {
      "anonymous": false,
      "inputs": [
        {
          "indexed": false,
          "name": "id",
          "type": "uint256"
        }
      ],
      "name": "CancelEvent",
      "type": "event"
    },
    {
      "constant": false,
      "inputs": [
        {
          "name": "_deposit",
          "type": "uint256"
        },
        {
          "name": "_rentalFee",
          "type": "uint256"
        }
      ],
      "name": "registerBookInfo",
      "outputs": [
        {
          "name": "id_",
          "type": "uint256"
        }
      ],
      "payable": true,
      "stateMutability": "payable",
      "type": "function"
    },
    {
      "constant": false,
      "inputs": [
        {
          "name": "_id",
          "type": "uint256"
        }
      ],
      "name": "borrowBook",
      "outputs": [
        {
          "name": "id_",
          "type": "uint256"
        }
      ],
      "payable": true,
      "stateMutability": "payable",
      "type": "function"
    },
    {
      "constant": false,
      "inputs": [
        {
          "name": "_id",
          "type": "uint256"
        }
      ],
      "name": "cancelRental",
      "outputs": [
        {
          "name": "id_",
          "type": "uint256"
        }
      ],
      "payable": true,
      "stateMutability": "payable",
      "type": "function"
    },
    {
      "constant": true,
      "inputs": [
        {
          "name": "_id",
          "type": "uint256"
        }
      ],
      "name": "getRentalInfo",
      "outputs": [
        {
          "name": "id_",
          "type": "uint256"
        },
        {
          "name": "lender_",
          "type": "address"
        },
        {
          "name": "borrower_",
          "type": "address"
        },
        {
          "name": "deposit_",
          "type": "uint256"
        },
        {
          "name": "rentalFee_",
          "type": "uint256"
        },
        {
          "name": "systemFee_",
          "type": "uint256"
        },
        {
          "name": "isRented_",
          "type": "bool"
        }
      ],
      "payable": false,
      "stateMutability": "view",
      "type": "function"
    },
    {
      "constant": false,
      "inputs": [
        {
          "name": "_id",
          "type": "uint256"
        }
      ],
      "name": "returnedBook",
      "outputs": [
        {
          "name": "id_",
          "type": "uint256"
        }
      ],
      "payable": false,
      "stateMutability": "nonpayable",
      "type": "function"
    },
    {
      "constant": false,
      "inputs": [
        {
          "name": "_id",
          "type": "uint256"
        }
      ],
      "name": "returnedBookInAbnormal",
      "outputs": [
        {
          "name": "id_",
          "type": "uint256"
        }
      ],
      "payable": false,
      "stateMutability": "nonpayable",
      "type": "function"
    },
    {
      "constant": false,
      "inputs": [
        {
          "name": "_id",
          "type": "uint256"
        },
        {
          "name": "_lateFee",
          "type": "uint256"
        }
      ],
      "name": "returnedBookWithLateFee",
      "outputs": [
        {
          "name": "id_",
          "type": "uint256"
        }
      ],
      "payable": false,
      "stateMutability": "nonpayable",
      "type": "function"
    },
    {
      "constant": false,
      "inputs": [
        {
          "name": "_systemFee",
          "type": "uint256"
        }
      ],
      "name": "setSystemFee",
      "outputs": [],
      "payable": false,
      "stateMutability": "nonpayable",
      "type": "function"
    },
    {
      "constant": true,
      "inputs": [],
      "name": "getSystemFee",
      "outputs": [
        {
          "name": "systemFee_",
          "type": "uint256"
        }
      ],
      "payable": false,
      "stateMutability": "view",
      "type": "function"
    },
    {
      "constant": false,
      "inputs": [
        {
          "name": "_cancelFee",
          "type": "uint256"
        }
      ],
      "name": "setCancelFee",
      "outputs": [],
      "payable": false,
      "stateMutability": "nonpayable",
      "type": "function"
    },
    {
      "constant": true,
      "inputs": [],
      "name": "getCancelFee",
      "outputs": [
        {
          "name": "cancelFee_",
          "type": "uint256"
        }
      ],
      "payable": false,
      "stateMutability": "view",
      "type": "function"
    },
    {
      "constant": false,
      "inputs": [],
      "name": "withdrawSystemFee",
      "outputs": [],
      "payable": false,
      "stateMutability": "nonpayable",
      "type": "function"
    }
  ],
  "bytecode": "0x6080604052670de0b6b3a7640000600055670de0b6b3a764000060015533600260006101000a81548173ffffffffffffffffffffffffffffffffffffffff021916908373ffffffffffffffffffffffffffffffffffffffff160217905550600060035534801561006e57600080fd5b50611f708061007e6000396000f3fe6080604052600436106100ba576000357c0100000000000000000000000000000000000000000000000000000000900463ffffffff1680630107927c146100bf5780630d8ad9811461010b57806314b0452b1461015a57806323056e991461019557806327dc3fbd146101c05780635e0dacb4146102955780636ad48817146102d75780637e490a9e14610302578063957affc514610344578063a2375bc91461039d578063c2070c49146103b4578063c2fffd6b14610403575b600080fd5b6100f5600480360360408110156100d557600080fd5b81019080803590602001909291908035906020019092919050505061043e565b6040518082815260200191505060405180910390f35b34801561011757600080fd5b506101446004803603602081101561012e57600080fd5b810190808035906020019092919050505061072e565b6040518082815260200191505060405180910390f35b34801561016657600080fd5b506101936004803603602081101561017d57600080fd5b8101908080359060200190929190505050610b43565b005b3480156101a157600080fd5b506101aa610b4d565b6040518082815260200191505060405180910390f35b3480156101cc57600080fd5b506101f9600480360360208110156101e357600080fd5b8101908080359060200190929190505050610b56565b604051808881526020018773ffffffffffffffffffffffffffffffffffffffff1673ffffffffffffffffffffffffffffffffffffffff1681526020018673ffffffffffffffffffffffffffffffffffffffff1673ffffffffffffffffffffffffffffffffffffffff1681526020018581526020018481526020018381526020018215151515815260200197505050505050505060405180910390f35b6102c1600480360360208110156102ab57600080fd5b8101908080359060200190929190505050610d59565b6040518082815260200191505060405180910390f35b3480156102e357600080fd5b506102ec611118565b6040518082815260200191505060405180910390f35b61032e6004803603602081101561031857600080fd5b8101908080359060200190929190505050611122565b6040518082815260200191505060405180910390f35b34801561035057600080fd5b506103876004803603604081101561036757600080fd5b810190808035906020019092919080359060200190929190505050611456565b6040518082815260200191505060405180910390f35b3480156103a957600080fd5b506103b26118f7565b005b3480156103c057600080fd5b506103ed600480360360208110156103d757600080fd5b8101908080359060200190929190505050611a3e565b6040518082815260200191505060405180910390f35b34801561040f57600080fd5b5061043c6004803603602081101561042657600080fd5b8101908080359060200190929190505050611ece565b005b600080831115156104b7576040517f08c379a000000000000000000000000000000000000000000000000000000000815260040180806020018281038252600f8152602001807f696e76616c6964206465706f736974000000000000000000000000000000000081525060200191505060405180910390fd5b60008211151561052f576040517f08c379a00000000000000000000000000000000000000000000000000000000081526004018080602001828103825260118152602001807f696e76616c69642072656e74616c46656500000000000000000000000000000081525060200191505060405180910390fd5b600054341415156105a8576040517f08c379a00000000000000000000000000000000000000000000000000000000081526004018080602001828103825260118152602001807f696e76616c6964206d73672e76616c756500000000000000000000000000000081525060200191505060405180910390fd5b6105b0611ed8565b60036000815460010191905081905581600001818152505033816020019073ffffffffffffffffffffffffffffffffffffffff16908173ffffffffffffffffffffffffffffffffffffffff16815250508381606001818152505082816080018181525050348160a001818152505060008160c00190151590811515815250508060046000836000015181526020019081526020016000206000820151816000015560208201518160010160006101000a81548173ffffffffffffffffffffffffffffffffffffffff021916908373ffffffffffffffffffffffffffffffffffffffff16021790555060408201518160020160006101000a81548173ffffffffffffffffffffffffffffffffffffffff021916908373ffffffffffffffffffffffffffffffffffffffff160217905550606082015181600301556080820151816004015560a0820151816005015560c08201518160060160006101000a81548160ff021916908315150217905550905050806000015191505092915050565b600080821115156107a7576040517f08c379a00000000000000000000000000000000000000000000000000000000081526004018080602001828103825260108152602001807f696e76616c696420696e7075742069640000000000000000000000000000000081525060200191505060405180910390fd5b60006004600084815260200190815260200160002060000154111515610835576040517f08c379a00000000000000000000000000000000000000000000000000000000081526004018080602001828103825260108152602001807f696e76616c69642069642076616c75650000000000000000000000000000000081525060200191505060405180910390fd5b6004600083815260200190815260200160002060060160009054906101000a900460ff1615156108cd576040517f08c379a000000000000000000000000000000000000000000000000000000000815260040180806020018281038252601b8152602001807f74686520626f6f6b206861736e2774206265656e2072656e746564000000000081525060200191505060405180910390fd5b3373ffffffffffffffffffffffffffffffffffffffff166004600084815260200190815260200160002060010160009054906101000a900473ffffffffffffffffffffffffffffffffffffffff1673ffffffffffffffffffffffffffffffffffffffff161415156109a6576040517f08c379a00000000000000000000000000000000000000000000000000000000081526004018080602001828103825260128152602001807f696e76616c6964206d73672e73656e646572000000000000000000000000000081525060200191505060405180910390fd5b60006004600084815260200190815260200160002060020160006101000a81548173ffffffffffffffffffffffffffffffffffffffff021916908373ffffffffffffffffffffffffffffffffffffffff16021790555060006004600084815260200190815260200160002060060160006101000a81548160ff0219169083151502179055506000600460008481526020019081526020016000206004015460046000858152602001908152602001600020600301540190503373ffffffffffffffffffffffffffffffffffffffff166108fc829081150290604051600060405180830381858888f19350505050158015610aa4573d6000803e3d6000fd5b50600260009054906101000a900473ffffffffffffffffffffffffffffffffffffffff1673ffffffffffffffffffffffffffffffffffffffff166108fc60046000868152602001908152602001600020600501549081150290604051600060405180830381858888f19350505050158015610b23573d6000803e3d6000fd5b506004600084815260200190815260200160002060000154915050919050565b8060008190555050565b60008054905090565b60008060008060008060008088111515610bd8576040517f08c379a00000000000000000000000000000000000000000000000000000000081526004018080602001828103825260108152602001807f696e76616c696420696e7075742069640000000000000000000000000000000081525060200191505060405180910390fd5b6000600460008a815260200190815260200160002060000154111515610c66576040517f08c379a00000000000000000000000000000000000000000000000000000000081526004018080602001828103825260108152602001807f696e76616c69642069642076616c75650000000000000000000000000000000081525060200191505060405180910390fd5b600460008981526020019081526020016000206000015496506004600089815260200190815260200160002060010160009054906101000a900473ffffffffffffffffffffffffffffffffffffffff1695506004600089815260200190815260200160002060020160009054906101000a900473ffffffffffffffffffffffffffffffffffffffff169450600460008981526020019081526020016000206003015493506004600089815260200190815260200160002060040154925060005491506004600089815260200190815260200160002060060160009054906101000a900460ff169050919395979092949650565b60008082111515610dd2576040517f08c379a00000000000000000000000000000000000000000000000000000000081526004018080602001828103825260108152602001807f696e76616c696420696e7075742069640000000000000000000000000000000081525060200191505060405180910390fd5b60015434141515610e4b576040517f08c379a00000000000000000000000000000000000000000000000000000000081526004018080602001828103825260118152602001807f696e76616c6964206d73672e76616c756500000000000000000000000000000081525060200191505060405180910390fd5b60006004600084815260200190815260200160002060000154111515610ed9576040517f08c379a00000000000000000000000000000000000000000000000000000000081526004018080602001828103825260108152602001807f696e76616c69642069642076616c75650000000000000000000000000000000081525060200191505060405180910390fd5b6004600083815260200190815260200160002060060160009054906101000a900460ff161515610f71576040517f08c379a000000000000000000000000000000000000000000000000000000000815260040180806020018281038252601b8152602001807f74686520626f6f6b206861736e2774206265656e2072656e746564000000000081525060200191505060405180910390fd5b60006004600084815260200190815260200160002060020160009054906101000a900473ffffffffffffffffffffffffffffffffffffffff16905060006004600085815260200190815260200160002060020160006101000a81548173ffffffffffffffffffffffffffffffffffffffff021916908373ffffffffffffffffffffffffffffffffffffffff16021790555060006004600085815260200190815260200160002060060160006101000a81548160ff0219169083151502179055506000600460008581526020019081526020016000206004015460046000868152602001908152602001600020600301540190507fe933406ce445ea24d84ca4529e514adc8926e62cdc8b5a67c568c9fd578f1a8a60046000868152602001908152602001600020600001546040518082815260200191505060405180910390a18173ffffffffffffffffffffffffffffffffffffffff166108fc829081150290604051600060405180830381858888f193505050501580156110f7573d6000803e3d6000fd5b50600460008581526020019081526020016000206000015492505050919050565b6000600154905090565b6000808211151561119b576040517f08c379a00000000000000000000000000000000000000000000000000000000081526004018080602001828103825260108152602001807f696e76616c696420696e7075742069640000000000000000000000000000000081525060200191505060405180910390fd5b60006004600084815260200190815260200160002060000154111515611229576040517f08c379a00000000000000000000000000000000000000000000000000000000081526004018080602001828103825260108152602001807f696e76616c69642069642076616c75650000000000000000000000000000000081525060200191505060405180910390fd5b6004600083815260200190815260200160002060060160009054906101000a900460ff161515156112c2576040517f08c379a00000000000000000000000000000000000000000000000000000000081526004018080602001828103825260188152602001807f74686520626f6f6b20686173206265656e2072656e746564000000000000000081525060200191505060405180910390fd5b600460008381526020019081526020016000206004015460046000848152602001908152602001600020600301540134141515611367576040517f08c379a00000000000000000000000000000000000000000000000000000000081526004018080602001828103825260148152602001807f6d73672e76616c756520697320696e76616c696400000000000000000000000081525060200191505060405180910390fd5b336004600084815260200190815260200160002060020160006101000a81548173ffffffffffffffffffffffffffffffffffffffff021916908373ffffffffffffffffffffffffffffffffffffffff16021790555060016004600084815260200190815260200160002060060160006101000a81548160ff0219169083151502179055507fc7309648c14a578bcf3d08d958401010ecc20053bbc61bf916845312d6776deb60046000848152602001908152602001600020600001546040518082815260200191505060405180910390a160046000838152602001908152602001600020600001549050919050565b600080831115156114cf576040517f08c379a00000000000000000000000000000000000000000000000000000000081526004018080602001828103825260108152602001807f696e76616c696420696e7075742069640000000000000000000000000000000081525060200191505060405180910390fd5b6000600460008581526020019081526020016000206000015411151561155d576040517f08c379a00000000000000000000000000000000000000000000000000000000081526004018080602001828103825260108152602001807f696e76616c69642069642076616c75650000000000000000000000000000000081525060200191505060405180910390fd5b6004600084815260200190815260200160002060060160009054906101000a900460ff1615156115f5576040517f08c379a000000000000000000000000000000000000000000000000000000000815260040180806020018281038252601b8152602001807f74686520626f6f6b206861736e2774206265656e2072656e746564000000000081525060200191505060405180910390fd5b3373ffffffffffffffffffffffffffffffffffffffff166004600085815260200190815260200160002060010160009054906101000a900473ffffffffffffffffffffffffffffffffffffffff1673ffffffffffffffffffffffffffffffffffffffff161415156116ce576040517f08c379a00000000000000000000000000000000000000000000000000000000081526004018080602001828103825260128152602001807f696e76616c6964206d73672e73656e646572000000000000000000000000000081525060200191505060405180910390fd5b60006004600085815260200190815260200160002060020160009054906101000a900473ffffffffffffffffffffffffffffffffffffffff16905060006004600086815260200190815260200160002060020160006101000a81548173ffffffffffffffffffffffffffffffffffffffff021916908373ffffffffffffffffffffffffffffffffffffffff16021790555060006004600086815260200190815260200160002060060160006101000a81548160ff021916908315150217905550600060046000868152602001908152602001600020600401548401905060008460046000888152602001908152602001600020600301540390503373ffffffffffffffffffffffffffffffffffffffff166108fc839081150290604051600060405180830381858888f1935050505015801561180e573d6000803e3d6000fd5b508273ffffffffffffffffffffffffffffffffffffffff166108fc829081150290604051600060405180830381858888f19350505050158015611855573d6000803e3d6000fd5b50600260009054906101000a900473ffffffffffffffffffffffffffffffffffffffff1673ffffffffffffffffffffffffffffffffffffffff166108fc60046000898152602001908152602001600020600501549081150290604051600060405180830381858888f193505050501580156118d4573d6000803e3d6000fd5b506004600087815260200190815260200160002060000154935050505092915050565b600260009054906101000a900473ffffffffffffffffffffffffffffffffffffffff1673ffffffffffffffffffffffffffffffffffffffff163373ffffffffffffffffffffffffffffffffffffffff161415156119bc576040517f08c379a00000000000000000000000000000000000000000000000000000000081526004018080602001828103825260128152602001807f696e76616c6964206d73672e73656e646572000000000000000000000000000081525060200191505060405180910390fd5b600260009054906101000a900473ffffffffffffffffffffffffffffffffffffffff1673ffffffffffffffffffffffffffffffffffffffff166108fc3073ffffffffffffffffffffffffffffffffffffffff16319081150290604051600060405180830381858888f19350505050158015611a3b573d6000803e3d6000fd5b50565b60008082111515611ab7576040517f08c379a00000000000000000000000000000000000000000000000000000000081526004018080602001828103825260108152602001807f696e76616c696420696e7075742069640000000000000000000000000000000081525060200191505060405180910390fd5b60006004600084815260200190815260200160002060000154111515611b45576040517f08c379a00000000000000000000000000000000000000000000000000000000081526004018080602001828103825260108152602001807f696e76616c69642069642076616c75650000000000000000000000000000000081525060200191505060405180910390fd5b6004600083815260200190815260200160002060060160009054906101000a900460ff161515611bdd576040517f08c379a000000000000000000000000000000000000000000000000000000000815260040180806020018281038252601b8152602001807f74686520626f6f6b206861736e2774206265656e2072656e746564000000000081525060200191505060405180910390fd5b3373ffffffffffffffffffffffffffffffffffffffff166004600084815260200190815260200160002060010160009054906101000a900473ffffffffffffffffffffffffffffffffffffffff1673ffffffffffffffffffffffffffffffffffffffff16141515611cb6576040517f08c379a00000000000000000000000000000000000000000000000000000000081526004018080602001828103825260128152602001807f696e76616c6964206d73672e73656e646572000000000000000000000000000081525060200191505060405180910390fd5b60006004600084815260200190815260200160002060020160009054906101000a900473ffffffffffffffffffffffffffffffffffffffff16905060006004600085815260200190815260200160002060020160006101000a81548173ffffffffffffffffffffffffffffffffffffffff021916908373ffffffffffffffffffffffffffffffffffffffff16021790555060006004600085815260200190815260200160002060060160006101000a81548160ff0219169083151502179055503373ffffffffffffffffffffffffffffffffffffffff166108fc60046000868152602001908152602001600020600401549081150290604051600060405180830381858888f19350505050158015611dd2573d6000803e3d6000fd5b508073ffffffffffffffffffffffffffffffffffffffff166108fc60046000868152602001908152602001600020600301549081150290604051600060405180830381858888f19350505050158015611e2f573d6000803e3d6000fd5b50600260009054906101000a900473ffffffffffffffffffffffffffffffffffffffff1673ffffffffffffffffffffffffffffffffffffffff166108fc60046000868152602001908152602001600020600501549081150290604051600060405180830381858888f19350505050158015611eae573d6000803e3d6000fd5b506004600084815260200190815260200160002060000154915050919050565b8060018190555050565b60e06040519081016040528060008152602001600073ffffffffffffffffffffffffffffffffffffffff168152602001600073ffffffffffffffffffffffffffffffffffffffff168152602001600081526020016000815260200160008152602001600015158152509056fea165627a7a72305820c5ebce6266570b8858744c219458a88cbac9c23658b124ffa04d26e1bbeab8740029",
  "source": "pragma solidity 0.5.0;\n\ncontract RentalBook {\n\t// 책 등록 기본 수수료\n\tuint SYSTEM_FEE = 1 ether;\n\tuint CANCEL_FEE = 1 ether;\n\taddress payable owner = msg.sender;\n\n\t// 대여 한건에 대한 구조체\n\tstruct RentalInfo {\n\t\tuint id; // 클라이언트 앱에서 생성한 고유 ID\n\t\taddress payable lender; // 책 대여자 계정\n\t\taddress payable borrower; // 책 대출자 계정\n\t\tuint deposit; // 보증금\n\t\tuint rentalFee; // 대여 수수료\n\t\tuint systemFee; // 책 등록시 수수료\n\t\tbool isRented; // 대여 여부\n\t}\n\n\t// id 생성변수\n\tuint idGenerator = 0;\n\n\t// 대여 정보 전체를 저장하는 mapping\n\tmapping(uint => RentalInfo) rentalInfoMap;\n\n\tevent BorrowEvent(uint id);\n\n\tevent CancelEvent(uint id);\n\n\t/**\n\t * 책 등록시 호출되는 함수.\n\t * 대여자가 보낸 transaction 의 value값을 시스템 수수료로 저장한다.\n\t */\n\tfunction registerBookInfo(uint _deposit,\n\t\t\t\t\t\t\t\tuint _rentalFee) external payable returns (uint id_) {\n\t\t\n\t\trequire(_deposit > 0, \"invalid deposit\");\n\t\trequire(_rentalFee > 0, \"invalid rentalFee\");\n\t\trequire(msg.value == SYSTEM_FEE, \"invalid msg.value\");\n\n\t\t// 책의 정보를 구조체로 만들어 mapping에 저장한다.\n\t\tRentalInfo memory rentalInfo;\n\t\trentalInfo.id = ++idGenerator;\n\t\trentalInfo.lender = msg.sender;\n\t\trentalInfo.deposit = _deposit;\n\t\trentalInfo.rentalFee = _rentalFee;\n\t\trentalInfo.systemFee = msg.value;\n\t\trentalInfo.isRented = false;\n\n\t\trentalInfoMap[rentalInfo.id] = rentalInfo;\n\t\t\n\t\t// 저장된 id를 리턴\n\t\tid_ = rentalInfo.id;\n\t}\n\n\t/**\n\t * 등록된 책들 중에 _id 인자값에 해당하는 책을 대여하는 함수\n\t * 대출자의 트랜잭션중 value 값은 보증금과 대여수수료의 합과 일치해야한다.\n\t */\n\tfunction borrowBook(uint _id) external payable returns (uint id_) {\n\t\trequire(_id > 0, \"invalid input id\");\n\t\trequire(rentalInfoMap[_id].id > 0, \"invalid id value\");\n\t\trequire(!rentalInfoMap[_id].isRented, \"the book has been rented\");\n\t\trequire(msg.value == (rentalInfoMap[_id].deposit + rentalInfoMap[_id].rentalFee), \"msg.value is invalid\");\n\n\t\t// mapping에 저장된 책의 정보중 대여자와 대여여부값을 수정한다.\n\t\trentalInfoMap[_id].borrower = msg.sender;\n\t\trentalInfoMap[_id].isRented = true;\n\n\t\t// 대출 EVENT 알림\n\t\temit BorrowEvent(rentalInfoMap[_id].id);\n\n\t\t// 저장한 id를 리턴\n\t\tid_ = rentalInfoMap[_id].id;\n\t}\n\n\t/**\n\t * 대여자, 대출자가 거래를 취소하는 함수\n\t * 취소 수수료가 있음\n\t */\n\tfunction cancelRental(uint _id) external payable returns(uint id_) {\n\t\trequire(_id > 0, \"invalid input id\");\n\t\trequire(msg.value == CANCEL_FEE, \"invalid msg.value\");\n\t\trequire(rentalInfoMap[_id].id > 0, \"invalid id value\");\n\t\trequire(rentalInfoMap[_id].isRented, \"the book hasn't been rented\");\n\n\t\t// mapping에 저장된 책의 정보 중 _id에 해당하는 책에 대한 대여 신청을 취소한다.\n\t\taddress payable borrower = rentalInfoMap[_id].borrower;\n\t\trentalInfoMap[_id].borrower = address(0);\n\t\trentalInfoMap[_id].isRented = false;\n\t\tuint refund = rentalInfoMap[_id].deposit + rentalInfoMap[_id].rentalFee;\n\n\t\t// 계약 취소 \"EVENT\"\n\t\temit CancelEvent(rentalInfoMap[_id].id);\n\n\t\t// 취소시 대출자가 지급한 보증금, 대여 수수료를 환불한다.\n\t\tborrower.transfer(refund);\n\t\t\n\t\tid_ = rentalInfoMap[_id].id;\n\t}\n\n\t/**\n\t * _id에 해당하는 RentalInfo를 조회하는 함수\n\t * 외부뿐만 아니라 내부에서도 호출할 수 있기때문에 public으로 구현\n\t */\n\tfunction getRentalInfo(uint _id) public view returns (uint id_,\n\t\t\t\t\t\t\t\t\t\t\t\t\t\t\t\taddress lender_,\n\t\t\t\t\t\t\t\t\t\t\t\t\t\t\t\taddress borrower_,\n\t\t\t\t\t\t\t\t\t\t\t\t\t\t\t\tuint deposit_,\n\t\t\t\t\t\t\t\t\t\t\t\t\t\t\t\tuint rentalFee_,\n\t\t\t\t\t\t\t\t\t\t\t\t\t\t\t\tuint systemFee_,\n\t\t\t\t\t\t\t\t\t\t\t\t\t\t\t\tbool isRented_) {\n\t\trequire(_id > 0, \"invalid input id\");\n\t\trequire(rentalInfoMap[_id].id > 0, \"invalid id value\");\n\n\t\tid_ = rentalInfoMap[_id].id;\n\t\tlender_ = rentalInfoMap[_id].lender;\n\t\tborrower_ = rentalInfoMap[_id].borrower;\n\t\tdeposit_ = rentalInfoMap[_id].deposit;\n\t\trentalFee_ = rentalInfoMap[_id].rentalFee;\n\t\tsystemFee_ = SYSTEM_FEE;\n\t\tisRented_ = rentalInfoMap[_id].isRented;\n\t}\n\n\t/**\n\t * 정상 반납을 위한 함수\n\t * 대여 수수료는 대여자에게 보증금은 대출자에게 환불한다.\n\t */\n\tfunction returnedBook(uint _id) external returns(uint id_) {\n\t\trequire(_id > 0, \"invalid input id\");\n\t\trequire(rentalInfoMap[_id].id > 0, \"invalid id value\");\n\t\trequire(rentalInfoMap[_id].isRented, \"the book hasn't been rented\");\n\t\trequire(rentalInfoMap[_id].lender == msg.sender, \"invalid msg.sender\");\n\n\t\t// mapping에 저장된 책의 정보 중 _id에 해당하는 책에 대한 정보를 반납 처리한다.\n\t\taddress payable borrower = rentalInfoMap[_id].borrower;\n\t\trentalInfoMap[_id].borrower = address(0);\n\t\trentalInfoMap[_id].isRented = false;\n\n\t\t// 대여 수수료를 대여자에게 지급한다.\n\t\tmsg.sender.transfer(rentalInfoMap[_id].rentalFee);\n\t\t// 대출자가 지급한 보증금을 환불한다.\n\t\tborrower.transfer(rentalInfoMap[_id].deposit);\n\t\t// 시스템 수수료를 소유자에게 지급한다.\n\t\towner.transfer(rentalInfoMap[_id].systemFee);\n\n\t\tid_ = rentalInfoMap[_id].id;\n\t}\n\n\t/**\n\t * 비정상 반납을 위한 함수\n\t * 대여 수수료 + 보증금은 대여자에게 지급한다.\n\t */\n\tfunction returnedBookInAbnormal(uint _id) external returns(uint id_) {\n\t\trequire(_id > 0, \"invalid input id\");\n\t\trequire(rentalInfoMap[_id].id > 0, \"invalid id value\");\n\t\trequire(rentalInfoMap[_id].isRented, \"the book hasn't been rented\");\n\t\trequire(rentalInfoMap[_id].lender == msg.sender, \"invalid msg.sender\");\n\n\t\t// mapping에 저장된 책의 정보 중 _id에 해당하는 책에 대한 정보를 반납 처리한다.\n\t\trentalInfoMap[_id].borrower = address(0);\n\t\trentalInfoMap[_id].isRented = false;\n\t\tuint refund = rentalInfoMap[_id].deposit + rentalInfoMap[_id].rentalFee;\n\n\t\t// 대여 수수료 + 보증금을 대여자에게 지급한다.\n\t\tmsg.sender.transfer(refund);\n\t\t// 시스템 수수료를 소유자에게 지급한다.\n\t\towner.transfer(rentalInfoMap[_id].systemFee);\n\n\t\tid_ = rentalInfoMap[_id].id;\n\t}\n\n\t/**\n\t * 연체 반납을 위한 함수\n\t * 대여 수수료 + 연체 수수료는 대여자에게 지급한다.\n\t * 보증금 - 연체 수수료는 대출자에게 환불한다.\n\t */\n\tfunction returnedBookWithLateFee(uint _id, uint _lateFee) external returns(uint id_) {\n\t\trequire(_id > 0, \"invalid input id\");\n\t\trequire(rentalInfoMap[_id].id > 0, \"invalid id value\");\n\t\trequire(rentalInfoMap[_id].isRented, \"the book hasn't been rented\");\n\t\trequire(rentalInfoMap[_id].lender == msg.sender, \"invalid msg.sender\");\n\n\t\t// mapping에 저장된 책의 정보 중 _id에 해당하는 책에 대한 정보를 반납 처리한다.\n\t\taddress payable borrower = rentalInfoMap[_id].borrower;\n\t\trentalInfoMap[_id].borrower = address(0);\n\t\trentalInfoMap[_id].isRented = false;\n\t\tuint amountToLender = _lateFee + rentalInfoMap[_id].rentalFee;\n\t\tuint amountToBorrower = rentalInfoMap[_id].deposit - _lateFee;\n\n\t\t// 대여 수수료 + 보증금을 대여자에게 지급한다.\n\t\tmsg.sender.transfer(amountToLender);\n\t\t// 보증금 - 연체료를 대출자에게 지급한다.\n\t\tborrower.transfer(amountToBorrower);\n\t\t// 시스템 수수료를 소유자에게 지급한다.\n\t\towner.transfer(rentalInfoMap[_id].systemFee);\n\n\t\tid_ = rentalInfoMap[_id].id;\n\t}\n\n\t/**\n\t * 시스템 사용 수수료를 조절하는 함수.\n\t * 단위 : wei\n\t */\n\tfunction setSystemFee(uint _systemFee) public {\n\t\tSYSTEM_FEE = _systemFee;\n\t}\n\n\t/**\n\t * 시스템 사용 수수료를 조회하는 함수.\n\t * 단위 : wei\n\t */\n\tfunction getSystemFee() public view returns(uint systemFee_) {\n\t\tsystemFee_ = SYSTEM_FEE;\n\t}\n\n\t/**\n\t * 취소 수수료를 조절하는 함수.\n\t * 단위 : wei\n\t */\n\tfunction setCancelFee(uint _cancelFee) public {\n\t\tCANCEL_FEE = _cancelFee;\n\t}\n\n\t/**\n\t * 취소 수수료를 조회하는 함수.\n\t * 단위 : wei\n\t */\n\tfunction getCancelFee() public view returns(uint cancelFee_) {\n\t\tcancelFee_ = CANCEL_FEE;\n\t}\n\n\t/**\n\t * 계약서 소유자가 시스템 수수료를 인출하는 함수.\n\t */\n\tfunction withdrawSystemFee() public {\n\t\t// 계약 오너에게 시스템 수수료를 전부 제공한다.\n\t\trequire(msg.sender == owner, \"invalid msg.sender\");\n\n\t\towner.transfer(address(this).balance);\n\t}\n}",
  "sourcePath": "/home/doubleu0714/Documents/consensys/bookpool/contracts/RentalBook.sol",
  "compiler": {
    "name": "solc",
    "version": "0.5.0+commit.1d4f565a.Emscripten.clang"
  },
  "schemaVersion": "3.0.2",
  "updatedAt": "2019-03-06T09:34:28.246Z",
  "devdoc": {
    "methods": {}
  },
  "userdoc": {
    "methods": {
      "borrowBook(uint256)": {
        "notice": "등록된 책들 중에 _id 인자값에 해당하는 책을 대여하는 함수 대출자의 트랜잭션중 value 값은 보증금과 대여수수료의 합과 일치해야한다."
      },
      "cancelRental(uint256)": {
        "notice": "대여자, 대출자가 거래를 취소하는 함수 취소 수수료가 있음"
      },
      "getCancelFee()": {
        "notice": "취소 수수료를 조회하는 함수. 단위 : wei"
      },
      "getRentalInfo(uint256)": {
        "notice": "_id에 해당하는 RentalInfo를 조회하는 함수 외부뿐만 아니라 내부에서도 호출할 수 있기때문에 public으로 구현"
      },
      "getSystemFee()": {
        "notice": "시스템 사용 수수료를 조회하는 함수. 단위 : wei"
      },
      "registerBookInfo(uint256,uint256)": {
        "notice": "책 등록시 호출되는 함수. 대여자가 보낸 transaction 의 value값을 시스템 수수료로 저장한다."
      },
      "returnedBook(uint256)": {
        "notice": "정상 반납을 위한 함수 대여 수수료는 대여자에게 보증금은 대출자에게 환불한다."
      },
      "returnedBookInAbnormal(uint256)": {
        "notice": "비정상 반납을 위한 함수 대여 수수료 + 보증금은 대여자에게 지급한다."
      },
      "returnedBookWithLateFee(uint256,uint256)": {
        "notice": "연체 반납을 위한 함수 대여 수수료 + 연체 수수료는 대여자에게 지급한다. 보증금 - 연체 수수료는 대출자에게 환불한다."
      },
      "setCancelFee(uint256)": {
        "notice": "취소 수수료를 조절하는 함수. 단위 : wei"
      },
      "setSystemFee(uint256)": {
        "notice": "시스템 사용 수수료를 조절하는 함수. 단위 : wei"
      },
      "withdrawSystemFee()": {
        "notice": "계약서 소유자가 시스템 수수료를 인출하는 함수."
      }
    }
  }
}