{
  "contractName": "RentalBook",
  "abi": [
    {
      "inputs": [],
      "payable": false,
      "stateMutability": "nonpayable",
      "type": "constructor",
      "signature": "constructor"
    },
    {
      "anonymous": false,
      "inputs": [
        {
          "indexed": false,
          "name": "id",
          "type": "uint256"
        }
      ],
      "name": "BorrowEvent",
      "type": "event",
      "signature": "0xc7309648c14a578bcf3d08d958401010ecc20053bbc61bf916845312d6776deb"
    },
    {
      "anonymous": false,
      "inputs": [
        {
          "indexed": false,
          "name": "id",
          "type": "uint256"
        }
      ],
      "name": "CancelEvent",
      "type": "event",
      "signature": "0xe933406ce445ea24d84ca4529e514adc8926e62cdc8b5a67c568c9fd578f1a8a"
    },
    {
      "anonymous": false,
      "inputs": [
        {
          "indexed": false,
          "name": "feeName",
          "type": "string"
        },
        {
          "indexed": false,
          "name": "fee",
          "type": "uint256"
        }
      ],
      "name": "ChangeFeeEvent",
      "type": "event",
      "signature": "0xc51d6e340a3eef3b192667ea27afbd4ceeb205c24a1e25af8cfb0c0317f33fdc"
    },
    {
      "constant": false,
      "inputs": [
        {
          "name": "_deposit",
          "type": "uint256"
        },
        {
          "name": "_rentalFee",
          "type": "uint256"
        }
      ],
      "name": "registerBookInfo",
      "outputs": [
        {
          "name": "id_",
          "type": "uint256"
        }
      ],
      "payable": true,
      "stateMutability": "payable",
      "type": "function",
      "signature": "0x0107927c"
    },
    {
      "constant": false,
      "inputs": [
        {
          "name": "_id",
          "type": "uint256"
        }
      ],
      "name": "borrowBook",
      "outputs": [
        {
          "name": "id_",
          "type": "uint256"
        }
      ],
      "payable": true,
      "stateMutability": "payable",
      "type": "function",
      "signature": "0x7e490a9e"
    },
    {
      "constant": false,
      "inputs": [
        {
          "name": "_id",
          "type": "uint256"
        }
      ],
      "name": "cancelRental",
      "outputs": [
        {
          "name": "id_",
          "type": "uint256"
        }
      ],
      "payable": true,
      "stateMutability": "payable",
      "type": "function",
      "signature": "0x5e0dacb4"
    },
    {
      "constant": true,
      "inputs": [
        {
          "name": "_id",
          "type": "uint256"
        }
      ],
      "name": "getRentalInfo",
      "outputs": [
        {
          "name": "id_",
          "type": "uint256"
        },
        {
          "name": "lender_",
          "type": "address"
        },
        {
          "name": "borrower_",
          "type": "address"
        },
        {
          "name": "deposit_",
          "type": "uint256"
        },
        {
          "name": "rentalFee_",
          "type": "uint256"
        },
        {
          "name": "systemFee_",
          "type": "uint256"
        },
        {
          "name": "isRented_",
          "type": "bool"
        }
      ],
      "payable": false,
      "stateMutability": "view",
      "type": "function",
      "signature": "0x27dc3fbd"
    },
    {
      "constant": false,
      "inputs": [
        {
          "name": "_id",
          "type": "uint256"
        }
      ],
      "name": "returnedBook",
      "outputs": [
        {
          "name": "id_",
          "type": "uint256"
        }
      ],
      "payable": false,
      "stateMutability": "nonpayable",
      "type": "function",
      "signature": "0xc2070c49"
    },
    {
      "constant": false,
      "inputs": [
        {
          "name": "_id",
          "type": "uint256"
        }
      ],
      "name": "returnedBookInAbnormal",
      "outputs": [
        {
          "name": "id_",
          "type": "uint256"
        }
      ],
      "payable": false,
      "stateMutability": "nonpayable",
      "type": "function",
      "signature": "0x0d8ad981"
    },
    {
      "constant": false,
      "inputs": [
        {
          "name": "_id",
          "type": "uint256"
        },
        {
          "name": "_lateFee",
          "type": "uint256"
        }
      ],
      "name": "returnedBookWithLateFee",
      "outputs": [
        {
          "name": "id_",
          "type": "uint256"
        }
      ],
      "payable": false,
      "stateMutability": "nonpayable",
      "type": "function",
      "signature": "0x957affc5"
    },
    {
      "constant": false,
      "inputs": [
        {
          "name": "_systemFee",
          "type": "uint256"
        }
      ],
      "name": "setSystemFee",
      "outputs": [],
      "payable": false,
      "stateMutability": "nonpayable",
      "type": "function",
      "signature": "0x14b0452b"
    },
    {
      "constant": true,
      "inputs": [],
      "name": "getSystemFee",
      "outputs": [
        {
          "name": "systemFee_",
          "type": "uint256"
        }
      ],
      "payable": false,
      "stateMutability": "view",
      "type": "function",
      "signature": "0x23056e99"
    },
    {
      "constant": false,
      "inputs": [
        {
          "name": "_cancelFee",
          "type": "uint256"
        }
      ],
      "name": "setCancelFee",
      "outputs": [],
      "payable": false,
      "stateMutability": "nonpayable",
      "type": "function",
      "signature": "0xc2fffd6b"
    },
    {
      "constant": true,
      "inputs": [],
      "name": "getCancelFee",
      "outputs": [
        {
          "name": "cancelFee_",
          "type": "uint256"
        }
      ],
      "payable": false,
      "stateMutability": "view",
      "type": "function",
      "signature": "0x6ad48817"
    },
    {
      "constant": false,
      "inputs": [],
      "name": "withdrawSystemFee",
      "outputs": [],
      "payable": false,
      "stateMutability": "nonpayable",
      "type": "function",
      "signature": "0xa2375bc9"
    },
    {
      "constant": true,
      "inputs": [],
      "name": "getRentedBook",
      "outputs": [
        {
          "name": "ids_",
          "type": "uint256[]"
        }
      ],
      "payable": false,
      "stateMutability": "view",
      "type": "function",
      "signature": "0x296a1a93"
    }
  ],
  "bytecode": "0x6080604052670de0b6b3a7640000600055670de0b6b3a764000060015533600260006101000a81548173ffffffffffffffffffffffffffffffffffffffff021916908373ffffffffffffffffffffffffffffffffffffffff160217905550600060035560006005553480156200007457600080fd5b506200007f62001039565b60036000815460010191905081905581600001818152505033816020019073ffffffffffffffffffffffffffffffffffffffff16908173ffffffffffffffffffffffffffffffffffffffff1681525050670de0b6b3a7640000816060018181525050670de0b6b3a7640000816080018181525050670de0b6b3a76400008160a001818152505060008160c00190151590811515815250508060046000836000015181526020019081526020016000206000820151816000015560208201518160010160006101000a81548173ffffffffffffffffffffffffffffffffffffffff021916908373ffffffffffffffffffffffffffffffffffffffff16021790555060408201518160020160006101000a81548173ffffffffffffffffffffffffffffffffffffffff021916908373ffffffffffffffffffffffffffffffffffffffff160217905550606082015181600301556080820151816004015560a0820151816005015560c08201518160060160006101000a81548160ff0219169083151502179055509050506200021162001039565b60036000815460010191905081905581600001818152505033816020019073ffffffffffffffffffffffffffffffffffffffff16908173ffffffffffffffffffffffffffffffffffffffff1681525050670de0b6b3a7640000816060018181525050670de0b6b3a7640000816080018181525050670de0b6b3a76400008160a001818152505060008160c00190151590811515815250508060046000836000015181526020019081526020016000206000820151816000015560208201518160010160006101000a81548173ffffffffffffffffffffffffffffffffffffffff021916908373ffffffffffffffffffffffffffffffffffffffff16021790555060408201518160020160006101000a81548173ffffffffffffffffffffffffffffffffffffffff021916908373ffffffffffffffffffffffffffffffffffffffff160217905550606082015181600301556080820151816004015560a0820151816005015560c08201518160060160006101000a81548160ff021916908315150217905550905050620003a362001039565b60036000815460010191905081905581600001818152505033816020019073ffffffffffffffffffffffffffffffffffffffff16908173ffffffffffffffffffffffffffffffffffffffff1681525050670de0b6b3a7640000816060018181525050670de0b6b3a7640000816080018181525050670de0b6b3a76400008160a001818152505060008160c00190151590811515815250508060046000836000015181526020019081526020016000206000820151816000015560208201518160010160006101000a81548173ffffffffffffffffffffffffffffffffffffffff021916908373ffffffffffffffffffffffffffffffffffffffff16021790555060408201518160020160006101000a81548173ffffffffffffffffffffffffffffffffffffffff021916908373ffffffffffffffffffffffffffffffffffffffff160217905550606082015181600301556080820151816004015560a0820151816005015560c08201518160060160006101000a81548160ff0219169083151502179055509050506200053562001039565b60036000815460010191905081905581600001818152505033816020019073ffffffffffffffffffffffffffffffffffffffff16908173ffffffffffffffffffffffffffffffffffffffff1681525050670de0b6b3a7640000816060018181525050670de0b6b3a7640000816080018181525050670de0b6b3a76400008160a001818152505060008160c00190151590811515815250508060046000836000015181526020019081526020016000206000820151816000015560208201518160010160006101000a81548173ffffffffffffffffffffffffffffffffffffffff021916908373ffffffffffffffffffffffffffffffffffffffff16021790555060408201518160020160006101000a81548173ffffffffffffffffffffffffffffffffffffffff021916908373ffffffffffffffffffffffffffffffffffffffff160217905550606082015181600301556080820151816004015560a0820151816005015560c08201518160060160006101000a81548160ff021916908315150217905550905050620006c762001039565b60036000815460010191905081905581600001818152505033816020019073ffffffffffffffffffffffffffffffffffffffff16908173ffffffffffffffffffffffffffffffffffffffff1681525050670de0b6b3a7640000816060018181525050670de0b6b3a7640000816080018181525050670de0b6b3a76400008160a001818152505060008160c00190151590811515815250508060046000836000015181526020019081526020016000206000820151816000015560208201518160010160006101000a81548173ffffffffffffffffffffffffffffffffffffffff021916908373ffffffffffffffffffffffffffffffffffffffff16021790555060408201518160020160006101000a81548173ffffffffffffffffffffffffffffffffffffffff021916908373ffffffffffffffffffffffffffffffffffffffff160217905550606082015181600301556080820151816004015560a0820151816005015560c08201518160060160006101000a81548160ff0219169083151502179055509050506200085962001039565b60036000815460010191905081905581600001818152505033816020019073ffffffffffffffffffffffffffffffffffffffff16908173ffffffffffffffffffffffffffffffffffffffff1681525050670de0b6b3a7640000816060018181525050670de0b6b3a7640000816080018181525050670de0b6b3a76400008160a001818152505060008160c00190151590811515815250508060046000836000015181526020019081526020016000206000820151816000015560208201518160010160006101000a81548173ffffffffffffffffffffffffffffffffffffffff021916908373ffffffffffffffffffffffffffffffffffffffff16021790555060408201518160020160006101000a81548173ffffffffffffffffffffffffffffffffffffffff021916908373ffffffffffffffffffffffffffffffffffffffff160217905550606082015181600301556080820151816004015560a0820151816005015560c08201518160060160006101000a81548160ff021916908315150217905550905050620009eb62001039565b60036000815460010191905081905581600001818152505033816020019073ffffffffffffffffffffffffffffffffffffffff16908173ffffffffffffffffffffffffffffffffffffffff1681525050670de0b6b3a7640000816060018181525050670de0b6b3a7640000816080018181525050670de0b6b3a76400008160a001818152505060008160c00190151590811515815250508060046000836000015181526020019081526020016000206000820151816000015560208201518160010160006101000a81548173ffffffffffffffffffffffffffffffffffffffff021916908373ffffffffffffffffffffffffffffffffffffffff16021790555060408201518160020160006101000a81548173ffffffffffffffffffffffffffffffffffffffff021916908373ffffffffffffffffffffffffffffffffffffffff160217905550606082015181600301556080820151816004015560a0820151816005015560c08201518160060160006101000a81548160ff02191690831515021790555090505062000b7d62001039565b60036000815460010191905081905581600001818152505033816020019073ffffffffffffffffffffffffffffffffffffffff16908173ffffffffffffffffffffffffffffffffffffffff1681525050670de0b6b3a7640000816060018181525050670de0b6b3a7640000816080018181525050670de0b6b3a76400008160a001818152505060008160c00190151590811515815250508060046000836000015181526020019081526020016000206000820151816000015560208201518160010160006101000a81548173ffffffffffffffffffffffffffffffffffffffff021916908373ffffffffffffffffffffffffffffffffffffffff16021790555060408201518160020160006101000a81548173ffffffffffffffffffffffffffffffffffffffff021916908373ffffffffffffffffffffffffffffffffffffffff160217905550606082015181600301556080820151816004015560a0820151816005015560c08201518160060160006101000a81548160ff02191690831515021790555090505062000d0f62001039565b60036000815460010191905081905581600001818152505033816020019073ffffffffffffffffffffffffffffffffffffffff16908173ffffffffffffffffffffffffffffffffffffffff1681525050670de0b6b3a7640000816060018181525050670de0b6b3a7640000816080018181525050670de0b6b3a76400008160a001818152505060008160c00190151590811515815250508060046000836000015181526020019081526020016000206000820151816000015560208201518160010160006101000a81548173ffffffffffffffffffffffffffffffffffffffff021916908373ffffffffffffffffffffffffffffffffffffffff16021790555060408201518160020160006101000a81548173ffffffffffffffffffffffffffffffffffffffff021916908373ffffffffffffffffffffffffffffffffffffffff160217905550606082015181600301556080820151816004015560a0820151816005015560c08201518160060160006101000a81548160ff02191690831515021790555090505062000ea162001039565b60036000815460010191905081905581600001818152505033816020019073ffffffffffffffffffffffffffffffffffffffff16908173ffffffffffffffffffffffffffffffffffffffff1681525050670de0b6b3a7640000816060018181525050670de0b6b3a7640000816080018181525050670de0b6b3a76400008160a001818152505060008160c00190151590811515815250508060046000836000015181526020019081526020016000206000820151816000015560208201518160010160006101000a81548173ffffffffffffffffffffffffffffffffffffffff021916908373ffffffffffffffffffffffffffffffffffffffff16021790555060408201518160020160006101000a81548173ffffffffffffffffffffffffffffffffffffffff021916908373ffffffffffffffffffffffffffffffffffffffff160217905550606082015181600301556080820151816004015560a0820151816005015560c08201518160060160006101000a81548160ff02191690831515021790555090505050505050505050505050620010a5565b60e06040519081016040528060008152602001600073ffffffffffffffffffffffffffffffffffffffff168152602001600073ffffffffffffffffffffffffffffffffffffffff1681526020016000815260200160008152602001600081526020016000151581525090565b6121d380620010b56000396000f3fe6080604052600436106100c5576000357c0100000000000000000000000000000000000000000000000000000000900463ffffffff1680630107927c146100ca5780630d8ad9811461011657806314b0452b1461016557806323056e99146101a057806327dc3fbd146101cb578063296a1a93146102a05780635e0dacb41461030c5780636ad488171461034e5780637e490a9e14610379578063957affc5146103bb578063a2375bc914610414578063c2070c491461042b578063c2fffd6b1461047a575b600080fd5b610100600480360360408110156100e057600080fd5b8101908080359060200190929190803590602001909291905050506104b5565b6040518082815260200191505060405180910390f35b34801561012257600080fd5b5061014f6004803603602081101561013957600080fd5b81019080803590602001909291905050506107a5565b6040518082815260200191505060405180910390f35b34801561017157600080fd5b5061019e6004803603602081101561018857600080fd5b8101908080359060200190929190505050610bcd565b005b3480156101ac57600080fd5b506101b5610c49565b6040518082815260200191505060405180910390f35b3480156101d757600080fd5b50610204600480360360208110156101ee57600080fd5b8101908080359060200190929190505050610c52565b604051808881526020018773ffffffffffffffffffffffffffffffffffffffff1673ffffffffffffffffffffffffffffffffffffffff1681526020018673ffffffffffffffffffffffffffffffffffffffff1673ffffffffffffffffffffffffffffffffffffffff1681526020018581526020018481526020018381526020018215151515815260200197505050505050505060405180910390f35b3480156102ac57600080fd5b506102b5610e55565b6040518080602001828103825283818151815260200191508051906020019060200280838360005b838110156102f85780820151818401526020810190506102dd565b505050509050019250505060405180910390f35b6103386004803603602081101561032257600080fd5b8101908080359060200190929190505050610eff565b6040518082815260200191505060405180910390f35b34801561035a57600080fd5b506103636112d1565b6040518082815260200191505060405180910390f35b6103a56004803603602081101561038f57600080fd5b81019080803590602001909291905050506112db565b6040518082815260200191505060405180910390f35b3480156103c757600080fd5b506103fe600480360360408110156103de57600080fd5b810190808035906020019092919080359060200190929190505050611621565b6040518082815260200191505060405180910390f35b34801561042057600080fd5b50610429611ad5565b005b34801561043757600080fd5b506104646004803603602081101561044e57600080fd5b8101908080359060200190929190505050611c1c565b6040518082815260200191505060405180910390f35b34801561048657600080fd5b506104b36004803603602081101561049d57600080fd5b81019080803590602001909291905050506120bf565b005b6000808311151561052e576040517f08c379a000000000000000000000000000000000000000000000000000000000815260040180806020018281038252600f8152602001807f696e76616c6964206465706f736974000000000000000000000000000000000081525060200191505060405180910390fd5b6000821115156105a6576040517f08c379a00000000000000000000000000000000000000000000000000000000081526004018080602001828103825260118152602001807f696e76616c69642072656e74616c46656500000000000000000000000000000081525060200191505060405180910390fd5b6000543414151561061f576040517f08c379a00000000000000000000000000000000000000000000000000000000081526004018080602001828103825260118152602001807f696e76616c6964206d73672e76616c756500000000000000000000000000000081525060200191505060405180910390fd5b61062761213b565b60036000815460010191905081905581600001818152505033816020019073ffffffffffffffffffffffffffffffffffffffff16908173ffffffffffffffffffffffffffffffffffffffff16815250508381606001818152505082816080018181525050348160a001818152505060008160c00190151590811515815250508060046000836000015181526020019081526020016000206000820151816000015560208201518160010160006101000a81548173ffffffffffffffffffffffffffffffffffffffff021916908373ffffffffffffffffffffffffffffffffffffffff16021790555060408201518160020160006101000a81548173ffffffffffffffffffffffffffffffffffffffff021916908373ffffffffffffffffffffffffffffffffffffffff160217905550606082015181600301556080820151816004015560a0820151816005015560c08201518160060160006101000a81548160ff021916908315150217905550905050806000015191505092915050565b6000808211151561081e576040517f08c379a00000000000000000000000000000000000000000000000000000000081526004018080602001828103825260108152602001807f696e76616c696420696e7075742069640000000000000000000000000000000081525060200191505060405180910390fd5b600060046000848152602001908152602001600020600001541115156108ac576040517f08c379a00000000000000000000000000000000000000000000000000000000081526004018080602001828103825260108152602001807f696e76616c69642069642076616c75650000000000000000000000000000000081525060200191505060405180910390fd5b6004600083815260200190815260200160002060060160009054906101000a900460ff161515610944576040517f08c379a000000000000000000000000000000000000000000000000000000000815260040180806020018281038252601b8152602001807f74686520626f6f6b206861736e2774206265656e2072656e746564000000000081525060200191505060405180910390fd5b3373ffffffffffffffffffffffffffffffffffffffff166004600084815260200190815260200160002060010160009054906101000a900473ffffffffffffffffffffffffffffffffffffffff1673ffffffffffffffffffffffffffffffffffffffff16141515610a1d576040517f08c379a00000000000000000000000000000000000000000000000000000000081526004018080602001828103825260128152602001807f696e76616c6964206d73672e73656e646572000000000000000000000000000081525060200191505060405180910390fd5b60006004600084815260200190815260200160002060020160006101000a81548173ffffffffffffffffffffffffffffffffffffffff021916908373ffffffffffffffffffffffffffffffffffffffff16021790555060006004600084815260200190815260200160002060060160006101000a81548160ff021916908315150217905550600060046000848152602001908152602001600020600401546004600085815260200190815260200160002060030154019050600560008154809291906001900391905055503373ffffffffffffffffffffffffffffffffffffffff166108fc829081150290604051600060405180830381858888f19350505050158015610b2e573d6000803e3d6000fd5b50600260009054906101000a900473ffffffffffffffffffffffffffffffffffffffff1673ffffffffffffffffffffffffffffffffffffffff166108fc60046000868152602001908152602001600020600501549081150290604051600060405180830381858888f19350505050158015610bad573d6000803e3d6000fd5b506004600084815260200190815260200160002060000154915050919050565b806000819055507fc51d6e340a3eef3b192667ea27afbd4ceeb205c24a1e25af8cfb0c0317f33fdc60005460405180806020018381526020018281038252600a8152602001807f53595354454d5f464545000000000000000000000000000000000000000000008152506020019250505060405180910390a150565b60008054905090565b60008060008060008060008088111515610cd4576040517f08c379a00000000000000000000000000000000000000000000000000000000081526004018080602001828103825260108152602001807f696e76616c696420696e7075742069640000000000000000000000000000000081525060200191505060405180910390fd5b6000600460008a815260200190815260200160002060000154111515610d62576040517f08c379a00000000000000000000000000000000000000000000000000000000081526004018080602001828103825260108152602001807f696e76616c69642069642076616c75650000000000000000000000000000000081525060200191505060405180910390fd5b600460008981526020019081526020016000206000015496506004600089815260200190815260200160002060010160009054906101000a900473ffffffffffffffffffffffffffffffffffffffff1695506004600089815260200190815260200160002060020160009054906101000a900473ffffffffffffffffffffffffffffffffffffffff169450600460008981526020019081526020016000206003015493506004600089815260200190815260200160002060040154925060005491506004600089815260200190815260200160002060060160009054906101000a900460ff169050919395979092949650565b6060600554604051908082528060200260200182016040528015610e885781602001602082028038833980820191505090505b509050600080905060008090505b600354811015610efa576004600082815260200190815260200160002060060160009054906101000a900460ff1615610eed57808383806001019450815181101515610ede57fe5b90602001906020020181815250505b8080600101915050610e96565b505090565b60008082111515610f78576040517f08c379a00000000000000000000000000000000000000000000000000000000081526004018080602001828103825260108152602001807f696e76616c696420696e7075742069640000000000000000000000000000000081525060200191505060405180910390fd5b60015434141515610ff1576040517f08c379a00000000000000000000000000000000000000000000000000000000081526004018080602001828103825260118152602001807f696e76616c6964206d73672e76616c756500000000000000000000000000000081525060200191505060405180910390fd5b6000600460008481526020019081526020016000206000015411151561107f576040517f08c379a00000000000000000000000000000000000000000000000000000000081526004018080602001828103825260108152602001807f696e76616c69642069642076616c75650000000000000000000000000000000081525060200191505060405180910390fd5b6004600083815260200190815260200160002060060160009054906101000a900460ff161515611117576040517f08c379a000000000000000000000000000000000000000000000000000000000815260040180806020018281038252601b8152602001807f74686520626f6f6b206861736e2774206265656e2072656e746564000000000081525060200191505060405180910390fd5b60006004600084815260200190815260200160002060020160009054906101000a900473ffffffffffffffffffffffffffffffffffffffff16905060006004600085815260200190815260200160002060020160006101000a81548173ffffffffffffffffffffffffffffffffffffffff021916908373ffffffffffffffffffffffffffffffffffffffff16021790555060006004600085815260200190815260200160002060060160006101000a81548160ff021916908315150217905550600060046000858152602001908152602001600020600401546004600086815260200190815260200160002060030154019050600560008154809291906001900391905055507fe933406ce445ea24d84ca4529e514adc8926e62cdc8b5a67c568c9fd578f1a8a60046000868152602001908152602001600020600001546040518082815260200191505060405180910390a18173ffffffffffffffffffffffffffffffffffffffff166108fc829081150290604051600060405180830381858888f193505050501580156112b0573d6000803e3d6000fd5b50600460008581526020019081526020016000206000015492505050919050565b6000600154905090565b60008082111515611354576040517f08c379a00000000000000000000000000000000000000000000000000000000081526004018080602001828103825260108152602001807f696e76616c696420696e7075742069640000000000000000000000000000000081525060200191505060405180910390fd5b600060046000848152602001908152602001600020600001541115156113e2576040517f08c379a00000000000000000000000000000000000000000000000000000000081526004018080602001828103825260108152602001807f696e76616c69642069642076616c75650000000000000000000000000000000081525060200191505060405180910390fd5b6004600083815260200190815260200160002060060160009054906101000a900460ff1615151561147b576040517f08c379a00000000000000000000000000000000000000000000000000000000081526004018080602001828103825260188152602001807f74686520626f6f6b20686173206265656e2072656e746564000000000000000081525060200191505060405180910390fd5b600460008381526020019081526020016000206004015460046000848152602001908152602001600020600301540134141515611520576040517f08c379a00000000000000000000000000000000000000000000000000000000081526004018080602001828103825260148152602001807f6d73672e76616c756520697320696e76616c696400000000000000000000000081525060200191505060405180910390fd5b336004600084815260200190815260200160002060020160006101000a81548173ffffffffffffffffffffffffffffffffffffffff021916908373ffffffffffffffffffffffffffffffffffffffff16021790555060016004600084815260200190815260200160002060060160006101000a81548160ff0219169083151502179055506005600081548092919060010191905055507fc7309648c14a578bcf3d08d958401010ecc20053bbc61bf916845312d6776deb60046000848152602001908152602001600020600001546040518082815260200191505060405180910390a160046000838152602001908152602001600020600001549050919050565b6000808311151561169a576040517f08c379a00000000000000000000000000000000000000000000000000000000081526004018080602001828103825260108152602001807f696e76616c696420696e7075742069640000000000000000000000000000000081525060200191505060405180910390fd5b60006004600085815260200190815260200160002060000154111515611728576040517f08c379a00000000000000000000000000000000000000000000000000000000081526004018080602001828103825260108152602001807f696e76616c69642069642076616c75650000000000000000000000000000000081525060200191505060405180910390fd5b6004600084815260200190815260200160002060060160009054906101000a900460ff1615156117c0576040517f08c379a000000000000000000000000000000000000000000000000000000000815260040180806020018281038252601b8152602001807f74686520626f6f6b206861736e2774206265656e2072656e746564000000000081525060200191505060405180910390fd5b3373ffffffffffffffffffffffffffffffffffffffff166004600085815260200190815260200160002060010160009054906101000a900473ffffffffffffffffffffffffffffffffffffffff1673ffffffffffffffffffffffffffffffffffffffff16141515611899576040517f08c379a00000000000000000000000000000000000000000000000000000000081526004018080602001828103825260128152602001807f696e76616c6964206d73672e73656e646572000000000000000000000000000081525060200191505060405180910390fd5b60006004600085815260200190815260200160002060020160009054906101000a900473ffffffffffffffffffffffffffffffffffffffff16905060006004600086815260200190815260200160002060020160006101000a81548173ffffffffffffffffffffffffffffffffffffffff021916908373ffffffffffffffffffffffffffffffffffffffff16021790555060006004600086815260200190815260200160002060060160006101000a81548160ff02191690831515021790555060006004600086815260200190815260200160002060040154840190506000846004600088815260200190815260200160002060030154039050600560008154809291906001900391905055503373ffffffffffffffffffffffffffffffffffffffff166108fc839081150290604051600060405180830381858888f193505050501580156119ec573d6000803e3d6000fd5b508273ffffffffffffffffffffffffffffffffffffffff166108fc829081150290604051600060405180830381858888f19350505050158015611a33573d6000803e3d6000fd5b50600260009054906101000a900473ffffffffffffffffffffffffffffffffffffffff1673ffffffffffffffffffffffffffffffffffffffff166108fc60046000898152602001908152602001600020600501549081150290604051600060405180830381858888f19350505050158015611ab2573d6000803e3d6000fd5b506004600087815260200190815260200160002060000154935050505092915050565b600260009054906101000a900473ffffffffffffffffffffffffffffffffffffffff1673ffffffffffffffffffffffffffffffffffffffff163373ffffffffffffffffffffffffffffffffffffffff16141515611b9a576040517f08c379a00000000000000000000000000000000000000000000000000000000081526004018080602001828103825260128152602001807f696e76616c6964206d73672e73656e646572000000000000000000000000000081525060200191505060405180910390fd5b600260009054906101000a900473ffffffffffffffffffffffffffffffffffffffff1673ffffffffffffffffffffffffffffffffffffffff166108fc3073ffffffffffffffffffffffffffffffffffffffff16319081150290604051600060405180830381858888f19350505050158015611c19573d6000803e3d6000fd5b50565b60008082111515611c95576040517f08c379a00000000000000000000000000000000000000000000000000000000081526004018080602001828103825260108152602001807f696e76616c696420696e7075742069640000000000000000000000000000000081525060200191505060405180910390fd5b60006004600084815260200190815260200160002060000154111515611d23576040517f08c379a00000000000000000000000000000000000000000000000000000000081526004018080602001828103825260108152602001807f696e76616c69642069642076616c75650000000000000000000000000000000081525060200191505060405180910390fd5b6004600083815260200190815260200160002060060160009054906101000a900460ff161515611dbb576040517f08c379a000000000000000000000000000000000000000000000000000000000815260040180806020018281038252601b8152602001807f74686520626f6f6b206861736e2774206265656e2072656e746564000000000081525060200191505060405180910390fd5b3373ffffffffffffffffffffffffffffffffffffffff166004600084815260200190815260200160002060010160009054906101000a900473ffffffffffffffffffffffffffffffffffffffff1673ffffffffffffffffffffffffffffffffffffffff16141515611e94576040517f08c379a00000000000000000000000000000000000000000000000000000000081526004018080602001828103825260128152602001807f696e76616c6964206d73672e73656e646572000000000000000000000000000081525060200191505060405180910390fd5b60006004600084815260200190815260200160002060020160009054906101000a900473ffffffffffffffffffffffffffffffffffffffff16905060006004600085815260200190815260200160002060020160006101000a81548173ffffffffffffffffffffffffffffffffffffffff021916908373ffffffffffffffffffffffffffffffffffffffff16021790555060006004600085815260200190815260200160002060060160006101000a81548160ff021916908315150217905550600560008154809291906001900391905055503373ffffffffffffffffffffffffffffffffffffffff166108fc60046000868152602001908152602001600020600401549081150290604051600060405180830381858888f19350505050158015611fc3573d6000803e3d6000fd5b508073ffffffffffffffffffffffffffffffffffffffff166108fc60046000868152602001908152602001600020600301549081150290604051600060405180830381858888f19350505050158015612020573d6000803e3d6000fd5b50600260009054906101000a900473ffffffffffffffffffffffffffffffffffffffff1673ffffffffffffffffffffffffffffffffffffffff166108fc60046000868152602001908152602001600020600501549081150290604051600060405180830381858888f1935050505015801561209f573d6000803e3d6000fd5b506004600084815260200190815260200160002060000154915050919050565b806001819055507fc51d6e340a3eef3b192667ea27afbd4ceeb205c24a1e25af8cfb0c0317f33fdc60015460405180806020018381526020018281038252600a8152602001807f43414e43454c5f464545000000000000000000000000000000000000000000008152506020019250505060405180910390a150565b60e06040519081016040528060008152602001600073ffffffffffffffffffffffffffffffffffffffff168152602001600073ffffffffffffffffffffffffffffffffffffffff168152602001600081526020016000815260200160008152602001600015158152509056fea165627a7a723058201554c2859f74a8c871f4c25f2d3a047ba14a85eda394ec0a4c04cff7b5fbdc880029",
  "source": "pragma solidity 0.5.0;\n\ncontract RentalBook {\n\t//    \n\tuint SYSTEM_FEE = 1 ether;\n\tuint CANCEL_FEE = 1 ether;\n\taddress payable owner = msg.sender;\n\n\t//    \n\tstruct RentalInfo {\n\t\tuint id; //     ID\n\t\taddress payable lender; //   \n\t\taddress payable borrower; //   \n\t\tuint deposit; // \n\t\tuint rentalFee; //  \n\t\tuint systemFee; //   \n\t\tbool isRented; //  \n\t}\n\n\t// id \n\tuint idGenerator = 0;\n\n\t//     mapping\n\tmapping(uint => RentalInfo) rentalInfoMap;\n\tuint rentedCount = 0;\n\n\t//    \n\tevent BorrowEvent(uint id);\n\t//    \n\tevent CancelEvent(uint id);\n\t//    \n\tevent ChangeFeeEvent(string feeName, uint fee);\n\n\tconstructor () public {\n\t\t//  \n\t\tRentalInfo memory rentalInfo1;\n\t\trentalInfo1.id = ++idGenerator;\n\t\trentalInfo1.lender = msg.sender;\n\t\trentalInfo1.deposit = 1000000000000000000;\n\t\trentalInfo1.rentalFee = 1000000000000000000;\n\t\trentalInfo1.systemFee = 1000000000000000000;\n\t\trentalInfo1.isRented = false;\n\t\trentalInfoMap[rentalInfo1.id] = rentalInfo1;\n\t\t//  \n\t\tRentalInfo memory rentalInfo2;\n\t\trentalInfo2.id = ++idGenerator;\n\t\trentalInfo2.lender = msg.sender;\n\t\trentalInfo2.deposit = 1000000000000000000;\n\t\trentalInfo2.rentalFee = 1000000000000000000;\n\t\trentalInfo2.systemFee = 1000000000000000000;\n\t\trentalInfo2.isRented = false;\n\t\trentalInfoMap[rentalInfo2.id] = rentalInfo2;\n\t\t//  \n\t\tRentalInfo memory rentalInfo3;\n\t\trentalInfo3.id = ++idGenerator;\n\t\trentalInfo3.lender = msg.sender;\n\t\trentalInfo3.deposit = 1000000000000000000;\n\t\trentalInfo3.rentalFee = 1000000000000000000;\n\t\trentalInfo3.systemFee = 1000000000000000000;\n\t\trentalInfo3.isRented = false;\n\t\trentalInfoMap[rentalInfo3.id] = rentalInfo3;\n\t\t//  \n\t\tRentalInfo memory rentalInfo4;\n\t\trentalInfo4.id = ++idGenerator;\n\t\trentalInfo4.lender = msg.sender;\n\t\trentalInfo4.deposit = 1000000000000000000;\n\t\trentalInfo4.rentalFee = 1000000000000000000;\n\t\trentalInfo4.systemFee = 1000000000000000000;\n\t\trentalInfo4.isRented = false;\n\t\trentalInfoMap[rentalInfo4.id] = rentalInfo4;\n\t\t//  \n\t\tRentalInfo memory rentalInfo5;\n\t\trentalInfo5.id = ++idGenerator;\n\t\trentalInfo5.lender = msg.sender;\n\t\trentalInfo5.deposit = 1000000000000000000;\n\t\trentalInfo5.rentalFee = 1000000000000000000;\n\t\trentalInfo5.systemFee = 1000000000000000000;\n\t\trentalInfo5.isRented = false;\n\t\trentalInfoMap[rentalInfo5.id] = rentalInfo5;\n\t\t//  \n\t\tRentalInfo memory rentalInfo6;\n\t\trentalInfo6.id = ++idGenerator;\n\t\trentalInfo6.lender = msg.sender;\n\t\trentalInfo6.deposit = 1000000000000000000;\n\t\trentalInfo6.rentalFee = 1000000000000000000;\n\t\trentalInfo6.systemFee = 1000000000000000000;\n\t\trentalInfo6.isRented = false;\n\t\trentalInfoMap[rentalInfo6.id] = rentalInfo6;\n\t\t//  \n\t\tRentalInfo memory rentalInfo7;\n\t\trentalInfo7.id = ++idGenerator;\n\t\trentalInfo7.lender = msg.sender;\n\t\trentalInfo7.deposit = 1000000000000000000;\n\t\trentalInfo7.rentalFee = 1000000000000000000;\n\t\trentalInfo7.systemFee = 1000000000000000000;\n\t\trentalInfo7.isRented = false;\n\t\trentalInfoMap[rentalInfo7.id] = rentalInfo7;\n\t\t//  \n\t\tRentalInfo memory rentalInfo8;\n\t\trentalInfo8.id = ++idGenerator;\n\t\trentalInfo8.lender = msg.sender;\n\t\trentalInfo8.deposit = 1000000000000000000;\n\t\trentalInfo8.rentalFee = 1000000000000000000;\n\t\trentalInfo8.systemFee = 1000000000000000000;\n\t\trentalInfo8.isRented = false;\n\t\trentalInfoMap[rentalInfo8.id] = rentalInfo8;\n\t\t//  \n\t\tRentalInfo memory rentalInfo9;\n\t\trentalInfo9.id = ++idGenerator;\n\t\trentalInfo9.lender = msg.sender;\n\t\trentalInfo9.deposit = 1000000000000000000;\n\t\trentalInfo9.rentalFee = 1000000000000000000;\n\t\trentalInfo9.systemFee = 1000000000000000000;\n\t\trentalInfo9.isRented = false;\n\t\trentalInfoMap[rentalInfo9.id] = rentalInfo9;\n\t\t//  \n\t\tRentalInfo memory rentalInfo10;\n\t\trentalInfo10.id = ++idGenerator;\n\t\trentalInfo10.lender = msg.sender;\n\t\trentalInfo10.deposit = 1000000000000000000;\n\t\trentalInfo10.rentalFee = 1000000000000000000;\n\t\trentalInfo10.systemFee = 1000000000000000000;\n\t\trentalInfo10.isRented = false;\n\t\trentalInfoMap[rentalInfo10.id] = rentalInfo10;\n\t}\n\n\t/**\n\t *    .\n\t *   transaction  value   .\n\t */\n\tfunction registerBookInfo(uint _deposit,\n\t\t\t\t\t\t\t\tuint _rentalFee) external payable returns (uint id_) {\n\t\t\n\t\trequire(_deposit > 0, \"invalid deposit\");\n\t\trequire(_rentalFee > 0, \"invalid rentalFee\");\n\t\trequire(msg.value == SYSTEM_FEE, \"invalid msg.value\");\n\n\t\t//     mapping .\n\t\tRentalInfo memory rentalInfo;\n\t\trentalInfo.id = ++idGenerator;\n\t\trentalInfo.lender = msg.sender;\n\t\trentalInfo.deposit = _deposit;\n\t\trentalInfo.rentalFee = _rentalFee;\n\t\trentalInfo.systemFee = msg.value;\n\t\trentalInfo.isRented = false;\n\n\t\trentalInfoMap[rentalInfo.id] = rentalInfo;\n\t\t\n\t\t//  id \n\t\tid_ = rentalInfo.id;\n\t}\n\n\t/**\n\t *    _id     \n\t *   value     .\n\t */\n\tfunction borrowBook(uint _id) external payable returns (uint id_) {\n\t\trequire(_id > 0, \"invalid input id\");\n\t\trequire(rentalInfoMap[_id].id > 0, \"invalid id value\");\n\t\trequire(!rentalInfoMap[_id].isRented, \"the book has been rented\");\n\t\trequire(msg.value == (rentalInfoMap[_id].deposit + rentalInfoMap[_id].rentalFee), \"msg.value is invalid\");\n\n\t\t// mapping      .\n\t\trentalInfoMap[_id].borrower = msg.sender;\n\t\trentalInfoMap[_id].isRented = true;\n\t\trentedCount++;\n\n\t\t//  EVENT \n\t\temit BorrowEvent(rentalInfoMap[_id].id);\n\n\t\t//  id \n\t\tid_ = rentalInfoMap[_id].id;\n\t}\n\n\t/**\n\t * ,    \n\t *   \n\t */\n\tfunction cancelRental(uint _id) external payable returns(uint id_) {\n\t\trequire(_id > 0, \"invalid input id\");\n\t\trequire(msg.value == CANCEL_FEE, \"invalid msg.value\");\n\t\trequire(rentalInfoMap[_id].id > 0, \"invalid id value\");\n\t\trequire(rentalInfoMap[_id].isRented, \"the book hasn't been rented\");\n\n\t\t// mapping     _id      .\n\t\taddress payable borrower = rentalInfoMap[_id].borrower;\n\t\trentalInfoMap[_id].borrower = address(0);\n\t\trentalInfoMap[_id].isRented = false;\n\t\tuint refund = rentalInfoMap[_id].deposit + rentalInfoMap[_id].rentalFee;\n\t\trentedCount--;\n\n\t\t//   \"EVENT\"\n\t\temit CancelEvent(rentalInfoMap[_id].id);\n\n\t\t//    ,   .\n\t\tborrower.transfer(refund);\n\t\t\n\t\tid_ = rentalInfoMap[_id].id;\n\t}\n\n\t/**\n\t * _id  RentalInfo  \n\t *       public \n\t */\n\tfunction getRentalInfo(uint _id) public view returns (uint id_,\n\t\t\t\t\t\t\t\t\t\t\t\t\t\t\t\taddress lender_,\n\t\t\t\t\t\t\t\t\t\t\t\t\t\t\t\taddress borrower_,\n\t\t\t\t\t\t\t\t\t\t\t\t\t\t\t\tuint deposit_,\n\t\t\t\t\t\t\t\t\t\t\t\t\t\t\t\tuint rentalFee_,\n\t\t\t\t\t\t\t\t\t\t\t\t\t\t\t\tuint systemFee_,\n\t\t\t\t\t\t\t\t\t\t\t\t\t\t\t\tbool isRented_) {\n\t\trequire(_id > 0, \"invalid input id\");\n\t\trequire(rentalInfoMap[_id].id > 0, \"invalid id value\");\n\n\t\tid_ = rentalInfoMap[_id].id;\n\t\tlender_ = rentalInfoMap[_id].lender;\n\t\tborrower_ = rentalInfoMap[_id].borrower;\n\t\tdeposit_ = rentalInfoMap[_id].deposit;\n\t\trentalFee_ = rentalInfoMap[_id].rentalFee;\n\t\tsystemFee_ = SYSTEM_FEE;\n\t\tisRented_ = rentalInfoMap[_id].isRented;\n\t}\n\n\t/**\n\t *    \n\t *      .\n\t */\n\tfunction returnedBook(uint _id) external returns(uint id_) {\n\t\trequire(_id > 0, \"invalid input id\");\n\t\trequire(rentalInfoMap[_id].id > 0, \"invalid id value\");\n\t\trequire(rentalInfoMap[_id].isRented, \"the book hasn't been rented\");\n\t\trequire(rentalInfoMap[_id].lender == msg.sender, \"invalid msg.sender\");\n\n\t\t// mapping     _id      .\n\t\taddress payable borrower = rentalInfoMap[_id].borrower;\n\t\trentalInfoMap[_id].borrower = address(0);\n\t\trentalInfoMap[_id].isRented = false;\n\t\trentedCount--;\n\n\t\t//    .\n\t\tmsg.sender.transfer(rentalInfoMap[_id].rentalFee);\n\t\t//    .\n\t\tborrower.transfer(rentalInfoMap[_id].deposit);\n\t\t//    .\n\t\towner.transfer(rentalInfoMap[_id].systemFee);\n\n\t\tid_ = rentalInfoMap[_id].id;\n\t}\n\n\t/**\n\t *    \n\t *   +   .\n\t */\n\tfunction returnedBookInAbnormal(uint _id) external returns(uint id_) {\n\t\trequire(_id > 0, \"invalid input id\");\n\t\trequire(rentalInfoMap[_id].id > 0, \"invalid id value\");\n\t\trequire(rentalInfoMap[_id].isRented, \"the book hasn't been rented\");\n\t\trequire(rentalInfoMap[_id].lender == msg.sender, \"invalid msg.sender\");\n\n\t\t// mapping     _id      .\n\t\trentalInfoMap[_id].borrower = address(0);\n\t\trentalInfoMap[_id].isRented = false;\n\t\tuint refund = rentalInfoMap[_id].deposit + rentalInfoMap[_id].rentalFee;\n\t\trentedCount--;\n\n\t\t//   +   .\n\t\tmsg.sender.transfer(refund);\n\t\t//    .\n\t\towner.transfer(rentalInfoMap[_id].systemFee);\n\n\t\tid_ = rentalInfoMap[_id].id;\n\t}\n\n\t/**\n\t *    \n\t *   +    .\n\t *  -    .\n\t */\n\tfunction returnedBookWithLateFee(uint _id, uint _lateFee) external returns(uint id_) {\n\t\trequire(_id > 0, \"invalid input id\");\n\t\trequire(rentalInfoMap[_id].id > 0, \"invalid id value\");\n\t\trequire(rentalInfoMap[_id].isRented, \"the book hasn't been rented\");\n\t\trequire(rentalInfoMap[_id].lender == msg.sender, \"invalid msg.sender\");\n\n\t\t// mapping     _id      .\n\t\taddress payable borrower = rentalInfoMap[_id].borrower;\n\t\trentalInfoMap[_id].borrower = address(0);\n\t\trentalInfoMap[_id].isRented = false;\n\t\tuint amountToLender = _lateFee + rentalInfoMap[_id].rentalFee;\n\t\tuint amountToBorrower = rentalInfoMap[_id].deposit - _lateFee;\n\t\trentedCount--;\n\n\t\t//   +   .\n\t\tmsg.sender.transfer(amountToLender);\n\t\t//  -   .\n\t\tborrower.transfer(amountToBorrower);\n\t\t//    .\n\t\towner.transfer(rentalInfoMap[_id].systemFee);\n\n\t\tid_ = rentalInfoMap[_id].id;\n\t}\n\n\t/**\n\t *     .\n\t *  : wei\n\t */\n\tfunction setSystemFee(uint _systemFee) public {\n\t\tSYSTEM_FEE = _systemFee;\n\t\temit ChangeFeeEvent(\"SYSTEM_FEE\", SYSTEM_FEE);\n\t}\n\n\t/**\n\t *     .\n\t *  : wei\n\t */\n\tfunction getSystemFee() public view returns(uint systemFee_) {\n\t\tsystemFee_ = SYSTEM_FEE;\n\t}\n\n\t/**\n\t *    .\n\t *  : wei\n\t */\n\tfunction setCancelFee(uint _cancelFee) public {\n\t\tCANCEL_FEE = _cancelFee;\n\t\temit ChangeFeeEvent(\"CANCEL_FEE\", CANCEL_FEE);\n\t}\n\n\t/**\n\t *    .\n\t *  : wei\n\t */\n\tfunction getCancelFee() public view returns(uint cancelFee_) {\n\t\tcancelFee_ = CANCEL_FEE;\n\t}\n\n\t/**\n\t *      .\n\t */\n\tfunction withdrawSystemFee() public {\n\t\t//      .\n\t\trequire(msg.sender == owner, \"invalid msg.sender\");\n\n\t\towner.transfer(address(this).balance);\n\t}\n\n\tfunction getRentedBook () public view returns(uint[] memory ids_) {\n\t\tids_ = new uint[](rentedCount);\n\t\tuint rentedIdx = 0;\n\t\tfor(uint i = 0 ; i < idGenerator ; i++) {\n\t\t\tif(rentalInfoMap[i].isRented) {\n\t\t\t\tids_[rentedIdx++] = i;\n\t\t\t}\n\t\t}\n\t}\n}",
  "sourcePath": "/home/doubleu0714/Documents/consensys/bookpool/contracts/RentalBook.sol",
  "compiler": {
    "name": "solc",
    "version": "0.5.0+commit.1d4f565a.Emscripten.clang"
  },
  "schemaVersion": "3.0.2",
  "updatedAt": "2019-03-07T05:44:34.866Z",
  "devdoc": {
    "methods": {}
  },
  "userdoc": {
    "methods": {
      "borrowBook(uint256)": {
        "notice": "   _id        value     ."
      },
      "cancelRental(uint256)": {
        "notice": ",       "
      },
      "getCancelFee()": {
        "notice": "   .  : wei"
      },
      "getRentalInfo(uint256)": {
        "notice": "_id  RentalInfo         public "
      },
      "getSystemFee()": {
        "notice": "    .  : wei"
      },
      "registerBookInfo(uint256,uint256)": {
        "notice": "   .   transaction  value   ."
      },
      "returnedBook(uint256)": {
        "notice": "         ."
      },
      "returnedBookInAbnormal(uint256)": {
        "notice": "      +   ."
      },
      "returnedBookWithLateFee(uint256,uint256)": {
        "notice": "      +    .  -    ."
      },
      "setCancelFee(uint256)": {
        "notice": "   .  : wei"
      },
      "setSystemFee(uint256)": {
        "notice": "    .  : wei"
      },
      "withdrawSystemFee()": {
        "notice": "     ."
      }
    }
  }
}